Component: ARM Compiler 5.06 update 6 (build 750) Tool: armlink [4d35ed]

==============================================================================

Section Cross References

    startup_stm32l476xx.o(RESET) refers to startup_stm32l476xx.o(STACK) for __initial_sp
    startup_stm32l476xx.o(RESET) refers to startup_stm32l476xx.o(.text) for Reset_Handler
    startup_stm32l476xx.o(RESET) refers to stm32l4xx_it.o(i.NMI_Handler) for NMI_Handler
    startup_stm32l476xx.o(RESET) refers to stm32l4xx_it.o(i.HardFault_Handler) for HardFault_Handler
    startup_stm32l476xx.o(RESET) refers to stm32l4xx_it.o(i.MemManage_Handler) for MemManage_Handler
    startup_stm32l476xx.o(RESET) refers to stm32l4xx_it.o(i.BusFault_Handler) for BusFault_Handler
    startup_stm32l476xx.o(RESET) refers to stm32l4xx_it.o(i.UsageFault_Handler) for UsageFault_Handler
    startup_stm32l476xx.o(RESET) refers to stm32l4xx_it.o(i.SVC_Handler) for SVC_Handler
    startup_stm32l476xx.o(RESET) refers to stm32l4xx_it.o(i.DebugMon_Handler) for DebugMon_Handler
    startup_stm32l476xx.o(RESET) refers to stm32l4xx_it.o(i.PendSV_Handler) for PendSV_Handler
    startup_stm32l476xx.o(RESET) refers to stm32l4xx_it.o(i.SysTick_Handler) for SysTick_Handler
    startup_stm32l476xx.o(RESET) refers to stm32l4xx_it.o(i.DMA1_Channel6_IRQHandler) for DMA1_Channel6_IRQHandler
    startup_stm32l476xx.o(RESET) refers to stm32l4xx_it.o(i.DMA1_Channel7_IRQHandler) for DMA1_Channel7_IRQHandler
    startup_stm32l476xx.o(RESET) refers to stm32l4xx_it.o(i.ADC1_2_IRQHandler) for ADC1_2_IRQHandler
    startup_stm32l476xx.o(RESET) refers to stm32l4xx_it.o(i.SPI2_IRQHandler) for SPI2_IRQHandler
    startup_stm32l476xx.o(RESET) refers to stm32l4xx_it.o(i.USART2_IRQHandler) for USART2_IRQHandler
    startup_stm32l476xx.o(RESET) refers to stm32l4xx_it.o(i.DMA2_Channel4_IRQHandler) for DMA2_Channel4_IRQHandler
    startup_stm32l476xx.o(.text) refers to system_stm32l4xx.o(i.SystemInit) for SystemInit
==============================================================================

Removing Unused input sections from the image.

    Removing startup_stm32l476xx.o(HEAP), (65536 bytes).
    Removing board.o(.rev16_text), (4 bytes).
    Removing board.o(.revsh_text), (4 bytes).
    Removing board.o(.rrx_text), (6 bytes).
    Removing board.o(i.naive_delay), (24 bytes).
    Removing board.o(.data), (4 bytes).
    Removing conway.o(.rev16_text), (4 bytes).
    Removing conway.o(.revsh_text), (4 bytes).
    Removing conway.o(.rrx_text), (6 bytes).
    Removing conway_cell_service.o(.rev16_text), (4 bytes).
    Removing conway_cell_service.o(.revsh_text), (4 bytes).
    Removing conway_cell_service.o(.rrx_text), (6 bytes).
    Removing conway_draw.o(.rev16_text), (4 bytes).
    Removing conway_draw.o(.revsh_text), (4 bytes).
    Removing conway_draw.o(.rrx_text), (6 bytes).
    Removing conway_features.o(.rev16_text), (4 bytes).
    Removing conway_features.o(.revsh_text), (4 bytes).
    Removing conway_features.o(.rrx_text), (6 bytes).
==============================================================================

Image Symbol Table

    Local Symbols

    Symbol Name                              Value     Ov Type        Size  Object(Section)

    ../Drivers/STM32L4xx_HAL_Driver/Src/stm32l4xx_hal.c 0x00000000   Number         0  stm32l4xx_hal.o ABSOLUTE
    ../Drivers/STM32L4xx_HAL_Driver/Src/stm32l4xx_hal_cortex.c 0x00000000   Number         0  stm32l4xx_hal_cortex.o ABSOLUTE
    ../Drivers/STM32L4xx_HAL_Driver/Src/stm32l4xx_hal_dma.c 0x00000000   Number         0  stm32l4xx_hal_dma.o ABSOLUTE
    ../Drivers/STM32L4xx_HAL_Driver/Src/stm32l4xx_hal_dma_ex.c 0x00000000   Number         0  stm32l4xx_hal_dma_ex.o ABSOLUTE
    ../Drivers/STM32L4xx_HAL_Driver/Src/stm32l4xx_hal_exti.c 0x00000000   Number         0  stm32l4xx_hal_exti.o ABSOLUTE
    ../Drivers/STM32L4xx_HAL_Driver/Src/stm32l4xx_hal_flash.c 0x00000000   Number         0  stm32l4xx_hal_flash.o ABSOLUTE
    ../Drivers/STM32L4xx_HAL_Driver/Src/stm32l4xx_hal_flash_ex.c 0x00000000   Number         0  stm32l4xx_hal_flash_ex.o ABSOLUTE
    ../Drivers/STM32L4xx_HAL_Driver/Src/stm32l4xx_hal_flash_ramfunc.c 0x00000000   Number         0  stm32l4xx_hal_flash_ramfunc.o ABSOLUTE
    ../Drivers/STM32L4xx_HAL_Driver/Src/stm32l4xx_hal_gpio.c 0x00000000   Number         0  stm32l4xx_hal_gpio.o ABSOLUTE
    ../Drivers/STM32L4xx_HAL_Driver/Src/stm32l4xx_hal_i2c.c 0x00000000   Number         0  stm32l4xx_hal_i2c.o ABSOLUTE
    ../Drivers/STM32L4xx_HAL_Driver/Src/stm32l4xx_hal_i2c_ex.c 0x00000000   Number         0  stm32l4xx_hal_i2c_ex.o ABSOLUTE
    ../Drivers/STM32L4xx_HAL_Driver/Src/stm32l4xx_hal_pwr.c 0x00000000   Number         0  stm32l4xx_hal_pwr.o ABSOLUTE
    ../Drivers/STM32L4xx_HAL_Driver/Src/stm32l4xx_hal_pwr_ex.c 0x00000000   Number         0  stm32l4xx_hal_pwr_ex.o ABSOLUTE
    ../Drivers/STM32L4xx_HAL_Driver/Src/stm32l4xx_hal_rcc.c 0x00000000   Number         0  stm32l4xx_hal_rcc.o ABSOLUTE
    ../Drivers/STM32L4xx_HAL_Driver/Src/stm32l4xx_hal_rcc_ex.c 0x00000000   Number         0  stm32l4xx_hal_rcc_ex.o ABSOLUTE
    ../Drivers/STM32L4xx_HAL_Driver/Src/stm32l4xx_hal_rng.c 0x00000000   Number         0  stm32l4xx_hal_rng.o ABSOLUTE
    ../Drivers/STM32L4xx_HAL_Driver/Src/stm32l4xx_hal_tim.c 0x00000000   Number         0  stm32l4xx_hal_tim.o ABSOLUTE
    ../Drivers/STM32L4xx_HAL_Driver/Src/stm32l4xx_hal_tim_ex.c 0x00000000   Number         0  stm32l4xx_hal_tim_ex.o ABSOLUTE
    ../Drivers/STM32L4xx_HAL_Driver/Src/stm32l4xx_ll_adc.c 0x00000000   Number         0  stm32l4xx_ll_adc.o ABSOLUTE
    ../Drivers/STM32L4xx_HAL_Driver/Src/stm32l4xx_ll_dma.c 0x00000000   Number         0  stm32l4xx_ll_dma.o ABSOLUTE
    ../Drivers/STM32L4xx_HAL_Driver/Src/stm32l4xx_ll_exti.c 0x00000000   Number         0  stm32l4xx_ll_exti.o ABSOLUTE
    ../Drivers/STM32L4xx_HAL_Driver/Src/stm32l4xx_ll_gpio.c 0x00000000   Number         0  stm32l4xx_ll_gpio.o ABSOLUTE
    ../Drivers/STM32L4xx_HAL_Driver/Src/stm32l4xx_ll_rcc.c 0x00000000   Number         0  stm32l4xx_ll_rcc.o ABSOLUTE
    ../Drivers/STM32L4xx_HAL_Driver/Src/stm32l4xx_ll_rtc.c 0x00000000   Number         0  stm32l4xx_ll_rtc.o ABSOLUTE
    ../Drivers/STM32L4xx_HAL_Driver/Src/stm32l4xx_ll_spi.c 0x00000000   Number         0  stm32l4xx_ll_spi.o ABSOLUTE
    ../Drivers/STM32L4xx_HAL_Driver/Src/stm32l4xx_ll_usart.c 0x00000000   Number         0  stm32l4xx_ll_usart.o ABSOLUTE
    ../Drivers/STM32L4xx_HAL_Driver/Src/stm32l4xx_ll_utils.c 0x00000000   Number         0  stm32l4xx_ll_utils.o ABSOLUTE
    ../Src/adc.c                             0x00000000   Number         0  adc.o ABSOLUTE
    ../Src/dma.c                             0x00000000   Number         0  dma.o ABSOLUTE
    ../Src/gpio.c                            0x00000000   Number         0  gpio.o ABSOLUTE
    ../Src/main.c                            0x00000000   Number         0  main.o ABSOLUTE
    ../Src/rng.c                             0x00000000   Number         0  rng.o ABSOLUTE
    ../Src/rtc.c                             0x00000000   Number         0  rtc.o ABSOLUTE
    ../Src/spi.c                             0x00000000   Number         0  spi.o ABSOLUTE
    ../Src/stm32l4xx_hal_msp.c               0x00000000   Number         0  stm32l4xx_hal_msp.o ABSOLUTE
    ../Src/stm32l4xx_it.c                    0x00000000   Number         0  stm32l4xx_it.o ABSOLUTE
    ../Src/sys.c                             0x00000000   Number         0  sys.o ABSOLUTE
    ../Src/system_stm32l4xx.c                0x00000000   Number         0  system_stm32l4xx.o ABSOLUTE
    ../Src/usart.c                           0x00000000   Number         0  usart.o ABSOLUTE
    ../clib/../cmprslib/zerorunl2.c          0x00000000   Number         0  __dczerorl2.o ABSOLUTE
    ../clib/microlib/division.c              0x00000000   Number         0  uidiv.o ABSOLUTE
    ../clib/microlib/division.c              0x00000000   Number         0  uldiv.o ABSOLUTE
    ../clib/microlib/init/entry.s            0x00000000   Number         0  entry7a.o ABSOLUTE
    ../clib/microlib/init/entry.s            0x00000000   Number         0  entry5.o ABSOLUTE
    ../clib/microlib/init/entry.s            0x00000000   Number         0  entry10a.o ABSOLUTE
    ../clib/microlib/init/entry.s            0x00000000   Number         0  entry.o ABSOLUTE
    ../clib/microlib/init/entry.s            0x00000000   Number         0  entry2.o ABSOLUTE
    ../clib/microlib/init/entry.s            0x00000000   Number         0  entry11b.o ABSOLUTE
    ../clib/microlib/init/entry.s            0x00000000   Number         0  entry11a.o ABSOLUTE
    ../clib/microlib/init/entry.s            0x00000000   Number         0  entry10b.o ABSOLUTE
    ../clib/microlib/init/entry.s            0x00000000   Number         0  entry9b.o ABSOLUTE
    ../clib/microlib/init/entry.s            0x00000000   Number         0  entry9a.o ABSOLUTE
    ../clib/microlib/init/entry.s            0x00000000   Number         0  entry8b.o ABSOLUTE
    ../clib/microlib/init/entry.s            0x00000000   Number         0  entry8a.o ABSOLUTE
    ../clib/microlib/init/entry.s            0x00000000   Number         0  entry7b.o ABSOLUTE
    ../clib/microlib/longlong.c              0x00000000   Number         0  llshl.o ABSOLUTE
    ../clib/microlib/longlong.c              0x00000000   Number         0  llsshr.o ABSOLUTE
    ../clib/microlib/longlong.c              0x00000000   Number         0  llushr.o ABSOLUTE
    ../clib/microlib/printf/printf.c         0x00000000   Number         0  printf5.o ABSOLUTE
    ../clib/microlib/printf/printf.c         0x00000000   Number         0  printf4.o ABSOLUTE
    ../clib/microlib/printf/printf.c         0x00000000   Number         0  printf8.o ABSOLUTE
    ../clib/microlib/printf/printf.c         0x00000000   Number         0  printf7.o ABSOLUTE
    ../clib/microlib/printf/printf.c         0x00000000   Number         0  printf3.o ABSOLUTE
    ../clib/microlib/printf/printf.c         0x00000000   Number         0  printf2.o ABSOLUTE
    ../clib/microlib/printf/printf.c         0x00000000   Number         0  printf1.o ABSOLUTE
    ../clib/microlib/printf/printf.c         0x00000000   Number         0  printf0.o ABSOLUTE
    ../clib/microlib/printf/printf.c         0x00000000   Number         0  printfb.o ABSOLUTE
    ../clib/microlib/printf/printf.c         0x00000000   Number         0  printf6.o ABSOLUTE
    ../clib/microlib/printf/printf.c         0x00000000   Number         0  printfa.o ABSOLUTE
    ../clib/microlib/string/memcpy.c         0x00000000   Number         0  memcpyb.o ABSOLUTE
    ../clib/microlib/string/memcpy.c         0x00000000   Number         0  memcpya.o ABSOLUTE
    ../clib/microlib/string/memset.c         0x00000000   Number         0  memseta.o ABSOLUTE
    ../clib/microlib/stubs.s                 0x00000000   Number         0  iusefp.o ABSOLUTE
    ../clib/microlib/stubs.s                 0x00000000   Number         0  useno.o ABSOLUTE
    ../fplib/microlib/fpadd.c                0x00000000   Number         0  dadd.o ABSOLUTE
    ../fplib/microlib/fpdiv.c                0x00000000   Number         0  ddiv.o ABSOLUTE
    ../fplib/microlib/fpepilogue.c           0x00000000   Number         0  depilogue.o ABSOLUTE
    ../fplib/microlib/fpfix.c                0x00000000   Number         0  dfixul.o ABSOLUTE
    ../fplib/microlib/fpmul.c                0x00000000   Number         0  dmul.o ABSOLUTE
    ..\Drivers\STM32L4xx_HAL_Driver\Src\stm32l4xx_hal.c 0x00000000   Number         0  stm32l4xx_hal.o ABSOLUTE
    ..\Drivers\STM32L4xx_HAL_Driver\Src\stm32l4xx_hal_cortex.c 0x00000000   Number         0  stm32l4xx_hal_cortex.o ABSOLUTE
    ..\Drivers\STM32L4xx_HAL_Driver\Src\stm32l4xx_hal_dma.c 0x00000000   Number         0  stm32l4xx_hal_dma.o ABSOLUTE
    ..\Drivers\STM32L4xx_HAL_Driver\Src\stm32l4xx_hal_dma_ex.c 0x00000000   Number         0  stm32l4xx_hal_dma_ex.o ABSOLUTE
    ..\Drivers\STM32L4xx_HAL_Driver\Src\stm32l4xx_hal_exti.c 0x00000000   Number         0  stm32l4xx_hal_exti.o ABSOLUTE
    ..\Drivers\STM32L4xx_HAL_Driver\Src\stm32l4xx_hal_flash.c 0x00000000   Number         0  stm32l4xx_hal_flash.o ABSOLUTE
    ..\Drivers\STM32L4xx_HAL_Driver\Src\stm32l4xx_hal_flash_ex.c 0x00000000   Number         0  stm32l4xx_hal_flash_ex.o ABSOLUTE
    ..\Drivers\STM32L4xx_HAL_Driver\Src\stm32l4xx_hal_flash_ramfunc.c 0x00000000   Number         0  stm32l4xx_hal_flash_ramfunc.o ABSOLUTE
    ..\Drivers\STM32L4xx_HAL_Driver\Src\stm32l4xx_hal_gpio.c 0x00000000   Number         0  stm32l4xx_hal_gpio.o ABSOLUTE
    ..\Drivers\STM32L4xx_HAL_Driver\Src\stm32l4xx_hal_i2c.c 0x00000000   Number         0  stm32l4xx_hal_i2c.o ABSOLUTE
    ..\Drivers\STM32L4xx_HAL_Driver\Src\stm32l4xx_hal_i2c_ex.c 0x00000000   Number         0  stm32l4xx_hal_i2c_ex.o ABSOLUTE
    ..\Drivers\STM32L4xx_HAL_Driver\Src\stm32l4xx_hal_pwr.c 0x00000000   Number         0  stm32l4xx_hal_pwr.o ABSOLUTE
    ..\Drivers\STM32L4xx_HAL_Driver\Src\stm32l4xx_hal_pwr_ex.c 0x00000000   Number         0  stm32l4xx_hal_pwr_ex.o ABSOLUTE
    ..\Drivers\STM32L4xx_HAL_Driver\Src\stm32l4xx_hal_rcc.c 0x00000000   Number         0  stm32l4xx_hal_rcc.o ABSOLUTE
    ..\Drivers\STM32L4xx_HAL_Driver\Src\stm32l4xx_hal_rcc_ex.c 0x00000000   Number         0  stm32l4xx_hal_rcc_ex.o ABSOLUTE
    ..\Drivers\STM32L4xx_HAL_Driver\Src\stm32l4xx_hal_rng.c 0x00000000   Number         0  stm32l4xx_hal_rng.o ABSOLUTE
    ..\Drivers\STM32L4xx_HAL_Driver\Src\stm32l4xx_hal_tim.c 0x00000000   Number         0  stm32l4xx_hal_tim.o ABSOLUTE
    ..\Drivers\STM32L4xx_HAL_Driver\Src\stm32l4xx_hal_tim_ex.c 0x00000000   Number         0  stm32l4xx_hal_tim_ex.o ABSOLUTE
    ..\Drivers\STM32L4xx_HAL_Driver\Src\stm32l4xx_ll_adc.c 0x00000000   Number         0  stm32l4xx_ll_adc.o ABSOLUTE
    ..\Drivers\STM32L4xx_HAL_Driver\Src\stm32l4xx_ll_dma.c 0x00000000   Number         0  stm32l4xx_ll_dma.o ABSOLUTE
    ..\Drivers\STM32L4xx_HAL_Driver\Src\stm32l4xx_ll_exti.c 0x00000000   Number         0  stm32l4xx_ll_exti.o ABSOLUTE
    ..\Drivers\STM32L4xx_HAL_Driver\Src\stm32l4xx_ll_gpio.c 0x00000000   Number         0  stm32l4xx_ll_gpio.o ABSOLUTE
    ..\Drivers\STM32L4xx_HAL_Driver\Src\stm32l4xx_ll_rcc.c 0x00000000   Number         0  stm32l4xx_ll_rcc.o ABSOLUTE
    ..\Drivers\STM32L4xx_HAL_Driver\Src\stm32l4xx_ll_rtc.c 0x00000000   Number         0  stm32l4xx_ll_rtc.o ABSOLUTE
    ..\Drivers\STM32L4xx_HAL_Driver\Src\stm32l4xx_ll_spi.c 0x00000000   Number         0  stm32l4xx_ll_spi.o ABSOLUTE
    ..\Drivers\STM32L4xx_HAL_Driver\Src\stm32l4xx_ll_usart.c 0x00000000   Number         0  stm32l4xx_ll_usart.o ABSOLUTE
    ..\Drivers\STM32L4xx_HAL_Driver\Src\stm32l4xx_ll_utils.c 0x00000000   Number         0  stm32l4xx_ll_utils.o ABSOLUTE
    ..\Src\adc.c                             0x00000000   Number         0  adc.o ABSOLUTE
    ..\Src\dma.c                             0x00000000   Number         0  dma.o ABSOLUTE
    ..\Src\gpio.c                            0x00000000   Number         0  gpio.o ABSOLUTE
    ..\Src\main.c                            0x00000000   Number         0  main.o ABSOLUTE
    ..\Src\rng.c                             0x00000000   Number         0  rng.o ABSOLUTE
    ..\Src\rtc.c                             0x00000000   Number         0  rtc.o ABSOLUTE
    ..\Src\spi.c                             0x00000000   Number         0  spi.o ABSOLUTE
    ..\Src\stm32l4xx_hal_msp.c               0x00000000   Number         0  stm32l4xx_hal_msp.o ABSOLUTE
    ..\Src\stm32l4xx_it.c                    0x00000000   Number         0  stm32l4xx_it.o ABSOLUTE
    ..\Src\sys.c                             0x00000000   Number         0  sys.o ABSOLUTE
    ..\Src\system_stm32l4xx.c                0x00000000   Number         0  system_stm32l4xx.o ABSOLUTE
    ..\Src\usart.c                           0x00000000   Number         0  usart.o ABSOLUTE
    ..\\app\\Board\\board.c                  0x00000000   Number         0  board.o ABSOLUTE
    ..\\app\\Conway_life\\conway.c           0x00000000   Number         0  conway.o ABSOLUTE
    ..\\app\\Conway_life\\conway_cell_service.c 0x00000000   Number         0  conway_cell_service.o ABSOLUTE
    ..\\app\\Conway_life\\conway_draw.c      0x00000000   Number         0  conway_draw.o ABSOLUTE
    ..\\app\\Conway_life\\conway_features.c  0x00000000   Number         0  conway_features.o ABSOLUTE
    ..\\app\\Conway_life\\conway_object.c    0x00000000   Number         0  conway_object.o ABSOLUTE
    ..\\app\\Conway_life\\conway_service.c   0x00000000   Number         0  conway_service.o ABSOLUTE
    ..\\app\\Print_retarget\\retarget.c      0x00000000   Number         0  retarget.o ABSOLUTE
    ..\\app\\ssd1331\\SSD1331.c              0x00000000   Number         0  ssd1331.o ABSOLUTE
    ..\app\Board\board.c                     0x00000000   Number         0  board.o ABSOLUTE
    ..\app\Conway_life\conway.c              0x00000000   Number         0  conway.o ABSOLUTE
    ..\app\Conway_life\conway_cell_service.c 0x00000000   Number         0  conway_cell_service.o ABSOLUTE
    ..\app\Conway_life\conway_draw.c         0x00000000   Number         0  conway_draw.o ABSOLUTE
    ..\app\Conway_life\conway_features.c     0x00000000   Number         0  conway_features.o ABSOLUTE
    ..\app\Conway_life\conway_object.c       0x00000000   Number         0  conway_object.o ABSOLUTE
    ..\app\Conway_life\conway_service.c      0x00000000   Number         0  conway_service.o ABSOLUTE
    ..\app\Print_retarget\retarget.c         0x00000000   Number         0  retarget.o ABSOLUTE
    ..\app\ssd1331\SSD1331.c                 0x00000000   Number         0  ssd1331.o ABSOLUTE
    cdrcmple.s                               0x00000000   Number         0  cdrcmple.o ABSOLUTE
    dc.s                                     0x00000000   Number         0  dc.o ABSOLUTE
    handlers.s                               0x00000000   Number         0  handlers.o ABSOLUTE
    init.s                                   0x00000000   Number         0  init.o ABSOLUTE
    startup_stm32l476xx.s                    0x00000000   Number         0  startup_stm32l476xx.o ABSOLUTE
    RESET                                    0x08000000   Section      392  startup_stm32l476xx.o(RESET)
    .ARM.Collect$$$$00000000                 0x08000188   Section        0  entry.o(.ARM.Collect$$$$00000000)
    .ARM.Collect$$$$00000001                 0x08000188   Section        4  entry2.o(.ARM.Collect$$$$00000001)
    .ARM.Collect$$$$00000004                 0x0800018c   Section        4  entry5.o(.ARM.Collect$$$$00000004)
    .ARM.Collect$$$$00000008                 0x08000190   Section        0  entry7b.o(.ARM.Collect$$$$00000008)
    .ARM.Collect$$$$0000000A                 0x08000190   Section        0  entry8b.o(.ARM.Collect$$$$0000000A)
    .ARM.Collect$$$$0000000B                 0x08000190   Section        8  entry9a.o(.ARM.Collect$$$$0000000B)
    .ARM.Collect$$$$0000000D                 0x08000198   Section        0  entry10a.o(.ARM.Collect$$$$0000000D)
    .ARM.Collect$$$$0000000F                 0x08000198   Section        0  entry11a.o(.ARM.Collect$$$$0000000F)
    .ARM.Collect$$$$00002712                 0x08000198   Section        4  entry2.o(.ARM.Collect$$$$00002712)
    __lit__00000000                          0x08000198   Data           4  entry2.o(.ARM.Collect$$$$00002712)
    .text                                    0x0800019c   Section       36  startup_stm32l476xx.o(.text)
    $v0                                      0x0800019c   Number         0  startup_stm32l476xx.o(.text)
    .text                                    0x080001c0   Section        0  memcpya.o(.text)
    .text                                    0x080001e4   Section        0  memseta.o(.text)
    .text                                    0x08000208   Section       36  init.o(.text)
    .text                                    0x0800022c   Section        0  __dczerorl2.o(.text)
    i.ADC1_2_IRQHandler                      0x08000282   Section        0  stm32l4xx_it.o(i.ADC1_2_IRQHandler)
    i.BusFault_Handler                       0x08000284   Section        0  stm32l4xx_it.o(i.BusFault_Handler)
    i.DMA1_Channel6_IRQHandler               0x0800029c   Section        0  stm32l4xx_it.o(i.DMA1_Channel6_IRQHandler)
    i.DMA1_Channel7_IRQHandler               0x0800029e   Section        0  stm32l4xx_it.o(i.DMA1_Channel7_IRQHandler)
    i.DMA2_Channel4_IRQHandler               0x080002a0   Section        0  stm32l4xx_it.o(i.DMA2_Channel4_IRQHandler)
    i.DWT_Init                               0x080002a4   Section        0  board.o(i.DWT_Init)
    i.DebugMon_Handler                       0x080002e4   Section        0  stm32l4xx_it.o(i.DebugMon_Handler)
    i.Error_Handler                          0x080002e6   Section        0  main.o(i.Error_Handler)
    i.HAL_GetTick                            0x080002e8   Section        0  stm32l4xx_hal.o(i.HAL_GetTick)
    i.HAL_IncTick                            0x080002f4   Section        0  stm32l4xx_hal.o(i.HAL_IncTick)
    i.HAL_Init                               0x08000304   Section        0  stm32l4xx_hal.o(i.HAL_Init)
    i.HAL_InitTick                           0x08000330   Section        0  stm32l4xx_hal.o(i.HAL_InitTick)
    i.HAL_MspInit                            0x08000374   Section        0  stm32l4xx_hal_msp.o(i.HAL_MspInit)
    i.HAL_NVIC_SetPriority                   0x080003a0   Section        0  stm32l4xx_hal_cortex.o(i.HAL_NVIC_SetPriority)
    i.HAL_NVIC_SetPriorityGrouping           0x080003e0   Section        0  stm32l4xx_hal_cortex.o(i.HAL_NVIC_SetPriorityGrouping)
    i.HAL_RNG_GenerateRandomNumber           0x08000404   Section        0  stm32l4xx_hal_rng.o(i.HAL_RNG_GenerateRandomNumber)
    i.HAL_RNG_GetRandomNumber                0x0800046e   Section        0  stm32l4xx_hal_rng.o(i.HAL_RNG_GetRandomNumber)
    i.HAL_RNG_Init                           0x08000484   Section        0  stm32l4xx_hal_rng.o(i.HAL_RNG_Init)
    i.HAL_RNG_MspInit                        0x080004b8   Section        0  rng.o(i.HAL_RNG_MspInit)
    i.HAL_SYSTICK_Config                     0x080004e0   Section        0  stm32l4xx_hal_cortex.o(i.HAL_SYSTICK_Config)
    i.HardFault_Handler                      0x08000508   Section        0  stm32l4xx_it.o(i.HardFault_Handler)
    i.LL_ADC_CommonInit                      0x08000520   Section        0  stm32l4xx_ll_adc.o(i.LL_ADC_CommonInit)
    i.LL_ADC_Init                            0x08000580   Section        0  stm32l4xx_ll_adc.o(i.LL_ADC_Init)
    i.LL_ADC_REG_Init                        0x080005ac   Section        0  stm32l4xx_ll_adc.o(i.LL_ADC_REG_Init)
    i.LL_ADC_REG_SetSequencerRanks           0x08000600   Section        0  adc.o(i.LL_ADC_REG_SetSequencerRanks)
    LL_ADC_REG_SetSequencerRanks             0x08000601   Thumb Code    34  adc.o(i.LL_ADC_REG_SetSequencerRanks)
    i.LL_ADC_SetChannelSamplingTime          0x08000622   Section        0  adc.o(i.LL_ADC_SetChannelSamplingTime)
    LL_ADC_SetChannelSamplingTime            0x08000623   Thumb Code    30  adc.o(i.LL_ADC_SetChannelSamplingTime)
    i.LL_ADC_SetChannelSingleDiff            0x08000640   Section        0  adc.o(i.LL_ADC_SetChannelSingleDiff)
    LL_ADC_SetChannelSingleDiff              0x08000641   Thumb Code    28  adc.o(i.LL_ADC_SetChannelSingleDiff)
    i.LL_AHB1_GRP1_EnableClock               0x08000660   Section        0  dma.o(i.LL_AHB1_GRP1_EnableClock)
    LL_AHB1_GRP1_EnableClock                 0x08000661   Thumb Code    18  dma.o(i.LL_AHB1_GRP1_EnableClock)
    i.LL_AHB2_GRP1_EnableClock               0x08000678   Section        0  gpio.o(i.LL_AHB2_GRP1_EnableClock)
    LL_AHB2_GRP1_EnableClock                 0x08000679   Thumb Code    18  gpio.o(i.LL_AHB2_GRP1_EnableClock)
    i.LL_AHB2_GRP1_EnableClock               0x08000690   Section        0  adc.o(i.LL_AHB2_GRP1_EnableClock)
    LL_AHB2_GRP1_EnableClock                 0x08000691   Thumb Code    18  adc.o(i.LL_AHB2_GRP1_EnableClock)
    i.LL_DMA_SetChannelPriorityLevel         0x080006a8   Section        0  usart.o(i.LL_DMA_SetChannelPriorityLevel)
    LL_DMA_SetChannelPriorityLevel           0x080006a9   Thumb Code    16  usart.o(i.LL_DMA_SetChannelPriorityLevel)
    i.LL_DMA_SetDataTransferDirection        0x080006bc   Section        0  usart.o(i.LL_DMA_SetDataTransferDirection)
    LL_DMA_SetDataTransferDirection          0x080006bd   Thumb Code    20  usart.o(i.LL_DMA_SetDataTransferDirection)
    i.LL_DMA_SetMemoryIncMode                0x080006d4   Section        0  usart.o(i.LL_DMA_SetMemoryIncMode)
    LL_DMA_SetMemoryIncMode                  0x080006d5   Thumb Code    16  usart.o(i.LL_DMA_SetMemoryIncMode)
    i.LL_DMA_SetMemorySize                   0x080006e8   Section        0  usart.o(i.LL_DMA_SetMemorySize)
    LL_DMA_SetMemorySize                     0x080006e9   Thumb Code    16  usart.o(i.LL_DMA_SetMemorySize)
    i.LL_DMA_SetMode                         0x080006fc   Section        0  usart.o(i.LL_DMA_SetMode)
    LL_DMA_SetMode                           0x080006fd   Thumb Code    16  usart.o(i.LL_DMA_SetMode)
    i.LL_DMA_SetPeriphIncMode                0x08000710   Section        0  usart.o(i.LL_DMA_SetPeriphIncMode)
    LL_DMA_SetPeriphIncMode                  0x08000711   Thumb Code    16  usart.o(i.LL_DMA_SetPeriphIncMode)
    i.LL_DMA_SetPeriphRequest                0x08000724   Section        0  usart.o(i.LL_DMA_SetPeriphRequest)
    LL_DMA_SetPeriphRequest                  0x08000725   Thumb Code    30  usart.o(i.LL_DMA_SetPeriphRequest)
    i.LL_DMA_SetPeriphSize                   0x08000744   Section        0  usart.o(i.LL_DMA_SetPeriphSize)
    LL_DMA_SetPeriphSize                     0x08000745   Thumb Code    16  usart.o(i.LL_DMA_SetPeriphSize)
    i.LL_GPIO_Init                           0x08000758   Section        0  stm32l4xx_ll_gpio.o(i.LL_GPIO_Init)
    i.LL_RCC_GetUARTClockFreq                0x0800088c   Section        0  stm32l4xx_ll_rcc.o(i.LL_RCC_GetUARTClockFreq)
    i.LL_RCC_GetUSARTClockFreq               0x08000928   Section        0  stm32l4xx_ll_rcc.o(i.LL_RCC_GetUSARTClockFreq)
    i.LL_RCC_HSI_IsReady                     0x080009f4   Section        0  stm32l4xx_ll_rcc.o(i.LL_RCC_HSI_IsReady)
    LL_RCC_HSI_IsReady                       0x080009f5   Thumb Code    10  stm32l4xx_ll_rcc.o(i.LL_RCC_HSI_IsReady)
    i.LL_RCC_LSE_IsReady                     0x08000a04   Section        0  stm32l4xx_ll_rcc.o(i.LL_RCC_LSE_IsReady)
    LL_RCC_LSE_IsReady                       0x08000a05   Thumb Code    12  stm32l4xx_ll_rcc.o(i.LL_RCC_LSE_IsReady)
    i.LL_RCC_MSI_GetRange                    0x08000a14   Section        0  stm32l4xx_ll_rcc.o(i.LL_RCC_MSI_GetRange)
    LL_RCC_MSI_GetRange                      0x08000a15   Thumb Code    10  stm32l4xx_ll_rcc.o(i.LL_RCC_MSI_GetRange)
    i.LL_RCC_MSI_GetRangeAfterStandby        0x08000a24   Section        0  stm32l4xx_ll_rcc.o(i.LL_RCC_MSI_GetRangeAfterStandby)
    LL_RCC_MSI_GetRangeAfterStandby          0x08000a25   Thumb Code    12  stm32l4xx_ll_rcc.o(i.LL_RCC_MSI_GetRangeAfterStandby)
    i.LL_RCC_MSI_IsEnabledRangeSelect        0x08000a34   Section        0  stm32l4xx_ll_rcc.o(i.LL_RCC_MSI_IsEnabledRangeSelect)
    LL_RCC_MSI_IsEnabledRangeSelect          0x08000a35   Thumb Code    10  stm32l4xx_ll_rcc.o(i.LL_RCC_MSI_IsEnabledRangeSelect)
    i.LL_RCC_PLL_GetDivider                  0x08000a44   Section        0  stm32l4xx_ll_rcc.o(i.LL_RCC_PLL_GetDivider)
    LL_RCC_PLL_GetDivider                    0x08000a45   Thumb Code    10  stm32l4xx_ll_rcc.o(i.LL_RCC_PLL_GetDivider)
    i.LL_RCC_PLL_GetMainSource               0x08000a54   Section        0  stm32l4xx_ll_rcc.o(i.LL_RCC_PLL_GetMainSource)
    LL_RCC_PLL_GetMainSource                 0x08000a55   Thumb Code    10  stm32l4xx_ll_rcc.o(i.LL_RCC_PLL_GetMainSource)
    i.LL_RTC_EnterInitMode                   0x08000a64   Section        0  stm32l4xx_ll_rtc.o(i.LL_RTC_EnterInitMode)
    i.LL_RTC_Init                            0x08000aaa   Section        0  stm32l4xx_ll_rtc.o(i.LL_RTC_Init)
    i.LL_SPI_Init                            0x08000afa   Section        0  stm32l4xx_ll_spi.o(i.LL_SPI_Init)
    i.LL_SetSystemCoreClock                  0x08000b58   Section        0  stm32l4xx_ll_utils.o(i.LL_SetSystemCoreClock)
    i.LL_USART_Init                          0x08000b64   Section        0  stm32l4xx_ll_usart.o(i.LL_USART_Init)
    i.MX_ADC2_Init                           0x08000c34   Section        0  adc.o(i.MX_ADC2_Init)
    i.MX_DMA_Init                            0x08000df8   Section        0  dma.o(i.MX_DMA_Init)
    i.MX_GPIO_Init                           0x08000e64   Section        0  gpio.o(i.MX_GPIO_Init)
    i.MX_RNG_Init                            0x08000ee0   Section        0  rng.o(i.MX_RNG_Init)
    i.MX_RTC_Init                            0x08000f04   Section        0  rtc.o(i.MX_RTC_Init)
    i.MX_SPI2_Init                           0x08000f30   Section        0  spi.o(i.MX_SPI2_Init)
    i.MX_USART2_UART_Init                    0x08001008   Section        0  usart.o(i.MX_USART2_UART_Init)
    i.MemManage_Handler                      0x08001178   Section        0  stm32l4xx_it.o(i.MemManage_Handler)
    i.NMI_Handler                            0x08001190   Section        0  stm32l4xx_it.o(i.NMI_Handler)
    i.NVIC_EncodePriority                    0x08001192   Section        0  dma.o(i.NVIC_EncodePriority)
    NVIC_EncodePriority                      0x08001193   Thumb Code    50  dma.o(i.NVIC_EncodePriority)
    i.PendSV_Handler                         0x080011c4   Section        0  stm32l4xx_it.o(i.PendSV_Handler)
    i.RCC_GetHCLKClockFreq                   0x080011c8   Section        0  stm32l4xx_ll_rcc.o(i.RCC_GetHCLKClockFreq)
    i.RCC_GetPCLK1ClockFreq                  0x080011e4   Section        0  stm32l4xx_ll_rcc.o(i.RCC_GetPCLK1ClockFreq)
    i.RCC_GetPCLK2ClockFreq                  0x08001200   Section        0  stm32l4xx_ll_rcc.o(i.RCC_GetPCLK2ClockFreq)
    i.RCC_GetSystemClockFreq                 0x0800121c   Section        0  stm32l4xx_ll_rcc.o(i.RCC_GetSystemClockFreq)
    i.RCC_PLL_GetFreqDomain_SYS              0x08001290   Section        0  stm32l4xx_ll_rcc.o(i.RCC_PLL_GetFreqDomain_SYS)
    i.SPI2_IRQHandler                        0x0800131c   Section        0  stm32l4xx_it.o(i.SPI2_IRQHandler)
    i.SSD1331_drawFrame                      0x0800131e   Section        0  ssd1331.o(i.SSD1331_drawFrame)
    i.SSD1331_drawPixel                      0x080013a4   Section        0  ssd1331.o(i.SSD1331_drawPixel)
    i.SSD1331_init                           0x080013f8   Section        0  ssd1331.o(i.SSD1331_init)
    i.SVC_Handler                            0x0800150c   Section        0  stm32l4xx_it.o(i.SVC_Handler)
    i.SysTick_Handler                        0x0800150e   Section        0  stm32l4xx_it.o(i.SysTick_Handler)
    i.SystemClock_Config                     0x08001514   Section        0  main.o(i.SystemClock_Config)
    i.SystemInit                             0x080016ac   Section        0  system_stm32l4xx.o(i.SystemInit)
    i.USART2_IRQHandler                      0x080016f0   Section        0  stm32l4xx_it.o(i.USART2_IRQHandler)
    i.UsageFault_Handler                     0x08001840   Section        0  stm32l4xx_it.o(i.UsageFault_Handler)
    i.__0printf$bare                         0x08001844   Section        0  printfb.o(i.__0printf$bare)
    i.__NVIC_EnableIRQ                       0x08001854   Section        0  dma.o(i.__NVIC_EnableIRQ)
    __NVIC_EnableIRQ                         0x08001855   Thumb Code    26  dma.o(i.__NVIC_EnableIRQ)
    i.__NVIC_SetPriority                     0x0800186e   Section        0  dma.o(i.__NVIC_SetPriority)
    __NVIC_SetPriority                       0x0800186f   Thumb Code    32  dma.o(i.__NVIC_SetPriority)
    i.__NVIC_SetPriority                     0x0800188e   Section        0  stm32l4xx_hal_cortex.o(i.__NVIC_SetPriority)
    __NVIC_SetPriority                       0x0800188f   Thumb Code    32  stm32l4xx_hal_cortex.o(i.__NVIC_SetPriority)
    i.__scatterload_copy                     0x080018ae   Section       14  handlers.o(i.__scatterload_copy)
    i.__scatterload_null                     0x080018bc   Section        2  handlers.o(i.__scatterload_null)
    i.__scatterload_zeroinit                 0x080018be   Section       14  handlers.o(i.__scatterload_zeroinit)
    i._calc_neighbours                       0x080018cc   Section        0  conway.o(i._calc_neighbours)
    i._delay_ms                              0x08001944   Section        0  board.o(i._delay_ms)
    i._draw_dot                              0x08001950   Section        0  conway_draw.o(i._draw_dot)
    i._get_cell_state                        0x08001970   Section        0  conway_cell_service.o(i._get_cell_state)
    i._printf_core                           0x08001994   Section        0  printfb.o(i._printf_core)
    _printf_core                             0x08001995   Thumb Code    34  printfb.o(i._printf_core)
    i._sendCmd                               0x080019b8   Section        0  ssd1331.o(i._sendCmd)
    i._sendData                              0x080019d4   Section        0  ssd1331.o(i._sendData)
    i._set_cell_state                        0x080019e8   Section        0  conway_cell_service.o(i._set_cell_state)
    i.delay_us                               0x08001a1c   Section        0  board.o(i.delay_us)
    i.fputc                                  0x08001a44   Section        0  retarget.o(i.fputc)
    i.main                                   0x08001a48   Section        0  main.o(i.main)
    i.printf_fifo_update                     0x08001abc   Section        0  retarget.o(i.printf_fifo_update)
    i.sendchar                               0x08001afc   Section        0  retarget.o(i.sendchar)
    i.universe_add                           0x08001b14   Section        0  conway_object.o(i.universe_add)
    i.universe_add_nxn                       0x08001b54   Section        0  conway_object.o(i.universe_add_nxn)
    i.universe_clear                         0x08001b7e   Section        0  conway_service.o(i.universe_clear)
    i.universe_draw_window                   0x08001b9c   Section        0  conway_draw.o(i.universe_draw_window)
    i.universe_fill                          0x08001d3e   Section        0  conway_service.o(i.universe_fill)
    i.universe_next                          0x08001d5a   Section        0  conway.o(i.universe_next)
    i.universe_rand                          0x08001de4   Section        0  conway_service.o(i.universe_rand)
    i.wait_and_clear                         0x08001e14   Section        0  main.o(i.wait_and_clear)
    .constdata                               0x08001e36   Section        7  adc.o(.constdata)
    CHANNEL_OFFSET_TAB                       0x08001e36   Data           7  adc.o(.constdata)
    .constdata                               0x08001e3d   Section        7  usart.o(.constdata)
    CHANNEL_OFFSET_TAB                       0x08001e3d   Data           7  usart.o(.constdata)
    .constdata                               0x08001e44   Section       64  system_stm32l4xx.o(.constdata)
    .constdata                               0x08001e84   Section        8  system_stm32l4xx.o(.constdata)
    .data                                    0x20000000   Section      188  conway_draw.o(.data)
    cell_color_table                         0x2000003c   Data         128  conway_draw.o(.data)
    .data                                    0x200000bc   Section       64  conway_object.o(.data)
    .data                                    0x200000fc   Section        9  conway_object.o(.data)
    .data                                    0x20000105   Section      512  conway_object.o(.data)
    .data                                    0x20000305   Section      361  conway_object.o(.data)
    .data                                    0x20000470   Section       12  stm32l4xx_hal.o(.data)
    .data                                    0x2000047c   Section        4  system_stm32l4xx.o(.data)
    .data                                    0x20000480   Section        4  retarget.o(.data)
    .data                                    0x20000484   Section        4  retarget.o(.data)
    .bss                                     0x20000488   Section       16  rng.o(.bss)
    .bss                                     0x20000498   Section      100  retarget.o(.bss)
    STACK                                    0x20000500   Section    65535  startup_stm32l476xx.o(STACK)

    Global Symbols

    Symbol Name                              Value     Ov Type        Size  Object(Section)

    BuildAttributes$$THM_ISAv4$E$P$D$K$B$S$7EM$VFPi3$EXTD16$VFPS$VFMA$PE$A:L22UL41UL21$X:L11$S22US41US21$IEEE1$IW$USESV6$~STKCKD$USESV7$~SHL$OSPACE$ROPI$EBA8$MICROLIB$REQ8$PRES8$EABIv2 0x00000000   Number         0  anon$$obj.o ABSOLUTE
    __ARM_use_no_argv                        0x00000000   Number         0  main.o ABSOLUTE
    __use_no_errno                           0x00000000   Number         0  useno.o ABSOLUTE
    __use_no_exception_handling              0x00000000   Number         0  useno.o ABSOLUTE
    __use_no_fp                              0x00000000   Number         0  useno.o ABSOLUTE
    __use_no_heap                            0x00000000   Number         0  useno.o ABSOLUTE
    __use_no_heap_region                     0x00000000   Number         0  useno.o ABSOLUTE
    __use_no_semihosting                     0x00000000   Number         0  useno.o ABSOLUTE
    __use_no_semihosting_swi                 0x00000000   Number         0  useno.o ABSOLUTE
    __use_no_signal_handling                 0x00000000   Number         0  useno.o ABSOLUTE
    __cpp_initialize__aeabi_                  - Undefined Weak Reference
    __cxa_finalize                            - Undefined Weak Reference
    _clock_init                               - Undefined Weak Reference
    _microlib_exit                            - Undefined Weak Reference
    __Vectors_Size                           0x00000188   Number         0  startup_stm32l476xx.o ABSOLUTE
    __Vectors                                0x08000000   Data           4  startup_stm32l476xx.o(RESET)
    __Vectors_End                            0x08000188   Data           0  startup_stm32l476xx.o(RESET)
    __main                                   0x08000189   Thumb Code     0  entry.o(.ARM.Collect$$$$00000000)
    _main_stk                                0x08000189   Thumb Code     0  entry2.o(.ARM.Collect$$$$00000001)
    _main_scatterload                        0x0800018d   Thumb Code     0  entry5.o(.ARM.Collect$$$$00000004)
    __main_after_scatterload                 0x08000191   Thumb Code     0  entry5.o(.ARM.Collect$$$$00000004)
    _main_clock                              0x08000191   Thumb Code     0  entry7b.o(.ARM.Collect$$$$00000008)
    _main_cpp_init                           0x08000191   Thumb Code     0  entry8b.o(.ARM.Collect$$$$0000000A)
    _main_init                               0x08000191   Thumb Code     0  entry9a.o(.ARM.Collect$$$$0000000B)
    __rt_final_cpp                           0x08000199   Thumb Code     0  entry10a.o(.ARM.Collect$$$$0000000D)
    __rt_final_exit                          0x08000199   Thumb Code     0  entry11a.o(.ARM.Collect$$$$0000000F)
    Reset_Handler                            0x0800019d   Thumb Code     8  startup_stm32l476xx.o(.text)
    ADC3_IRQHandler                          0x080001b7   Thumb Code     0  startup_stm32l476xx.o(.text)
    CAN1_RX0_IRQHandler                      0x080001b7   Thumb Code     0  startup_stm32l476xx.o(.text)
    CAN1_RX1_IRQHandler                      0x080001b7   Thumb Code     0  startup_stm32l476xx.o(.text)
    CAN1_SCE_IRQHandler                      0x080001b7   Thumb Code     0  startup_stm32l476xx.o(.text)
    CAN1_TX_IRQHandler                       0x080001b7   Thumb Code     0  startup_stm32l476xx.o(.text)
    COMP_IRQHandler                          0x080001b7   Thumb Code     0  startup_stm32l476xx.o(.text)
    DFSDM1_FLT0_IRQHandler                   0x080001b7   Thumb Code     0  startup_stm32l476xx.o(.text)
    DFSDM1_FLT1_IRQHandler                   0x080001b7   Thumb Code     0  startup_stm32l476xx.o(.text)
    DFSDM1_FLT2_IRQHandler                   0x080001b7   Thumb Code     0  startup_stm32l476xx.o(.text)
    DFSDM1_FLT3_IRQHandler                   0x080001b7   Thumb Code     0  startup_stm32l476xx.o(.text)
    DMA1_Channel1_IRQHandler                 0x080001b7   Thumb Code     0  startup_stm32l476xx.o(.text)
    DMA1_Channel2_IRQHandler                 0x080001b7   Thumb Code     0  startup_stm32l476xx.o(.text)
    DMA1_Channel3_IRQHandler                 0x080001b7   Thumb Code     0  startup_stm32l476xx.o(.text)
    DMA1_Channel4_IRQHandler                 0x080001b7   Thumb Code     0  startup_stm32l476xx.o(.text)
    DMA1_Channel5_IRQHandler                 0x080001b7   Thumb Code     0  startup_stm32l476xx.o(.text)
    DMA2_Channel1_IRQHandler                 0x080001b7   Thumb Code     0  startup_stm32l476xx.o(.text)
    DMA2_Channel2_IRQHandler                 0x080001b7   Thumb Code     0  startup_stm32l476xx.o(.text)
    DMA2_Channel3_IRQHandler                 0x080001b7   Thumb Code     0  startup_stm32l476xx.o(.text)
    DMA2_Channel5_IRQHandler                 0x080001b7   Thumb Code     0  startup_stm32l476xx.o(.text)
    DMA2_Channel6_IRQHandler                 0x080001b7   Thumb Code     0  startup_stm32l476xx.o(.text)
    DMA2_Channel7_IRQHandler                 0x080001b7   Thumb Code     0  startup_stm32l476xx.o(.text)
    EXTI0_IRQHandler                         0x080001b7   Thumb Code     0  startup_stm32l476xx.o(.text)
    EXTI15_10_IRQHandler                     0x080001b7   Thumb Code     0  startup_stm32l476xx.o(.text)
    EXTI1_IRQHandler                         0x080001b7   Thumb Code     0  startup_stm32l476xx.o(.text)
    EXTI2_IRQHandler                         0x080001b7   Thumb Code     0  startup_stm32l476xx.o(.text)
    EXTI3_IRQHandler                         0x080001b7   Thumb Code     0  startup_stm32l476xx.o(.text)
    EXTI4_IRQHandler                         0x080001b7   Thumb Code     0  startup_stm32l476xx.o(.text)
    EXTI9_5_IRQHandler                       0x080001b7   Thumb Code     0  startup_stm32l476xx.o(.text)
    FLASH_IRQHandler                         0x080001b7   Thumb Code     0  startup_stm32l476xx.o(.text)
    FMC_IRQHandler                           0x080001b7   Thumb Code     0  startup_stm32l476xx.o(.text)
    FPU_IRQHandler                           0x080001b7   Thumb Code     0  startup_stm32l476xx.o(.text)
    I2C1_ER_IRQHandler                       0x080001b7   Thumb Code     0  startup_stm32l476xx.o(.text)
    I2C1_EV_IRQHandler                       0x080001b7   Thumb Code     0  startup_stm32l476xx.o(.text)
    I2C2_ER_IRQHandler                       0x080001b7   Thumb Code     0  startup_stm32l476xx.o(.text)
    I2C2_EV_IRQHandler                       0x080001b7   Thumb Code     0  startup_stm32l476xx.o(.text)
    I2C3_ER_IRQHandler                       0x080001b7   Thumb Code     0  startup_stm32l476xx.o(.text)
    I2C3_EV_IRQHandler                       0x080001b7   Thumb Code     0  startup_stm32l476xx.o(.text)
    LCD_IRQHandler                           0x080001b7   Thumb Code     0  startup_stm32l476xx.o(.text)
    LPTIM1_IRQHandler                        0x080001b7   Thumb Code     0  startup_stm32l476xx.o(.text)
    LPTIM2_IRQHandler                        0x080001b7   Thumb Code     0  startup_stm32l476xx.o(.text)
    LPUART1_IRQHandler                       0x080001b7   Thumb Code     0  startup_stm32l476xx.o(.text)
    OTG_FS_IRQHandler                        0x080001b7   Thumb Code     0  startup_stm32l476xx.o(.text)
    PVD_PVM_IRQHandler                       0x080001b7   Thumb Code     0  startup_stm32l476xx.o(.text)
    QUADSPI_IRQHandler                       0x080001b7   Thumb Code     0  startup_stm32l476xx.o(.text)
    RCC_IRQHandler                           0x080001b7   Thumb Code     0  startup_stm32l476xx.o(.text)
    RNG_IRQHandler                           0x080001b7   Thumb Code     0  startup_stm32l476xx.o(.text)
    RTC_Alarm_IRQHandler                     0x080001b7   Thumb Code     0  startup_stm32l476xx.o(.text)
    RTC_WKUP_IRQHandler                      0x080001b7   Thumb Code     0  startup_stm32l476xx.o(.text)
    SAI1_IRQHandler                          0x080001b7   Thumb Code     0  startup_stm32l476xx.o(.text)
    SAI2_IRQHandler                          0x080001b7   Thumb Code     0  startup_stm32l476xx.o(.text)
    SDMMC1_IRQHandler                        0x080001b7   Thumb Code     0  startup_stm32l476xx.o(.text)
    SPI1_IRQHandler                          0x080001b7   Thumb Code     0  startup_stm32l476xx.o(.text)
    SPI3_IRQHandler                          0x080001b7   Thumb Code     0  startup_stm32l476xx.o(.text)
    SWPMI1_IRQHandler                        0x080001b7   Thumb Code     0  startup_stm32l476xx.o(.text)
    TAMP_STAMP_IRQHandler                    0x080001b7   Thumb Code     0  startup_stm32l476xx.o(.text)
    TIM1_BRK_TIM15_IRQHandler                0x080001b7   Thumb Code     0  startup_stm32l476xx.o(.text)
    TIM1_CC_IRQHandler                       0x080001b7   Thumb Code     0  startup_stm32l476xx.o(.text)
    TIM1_TRG_COM_TIM17_IRQHandler            0x080001b7   Thumb Code     0  startup_stm32l476xx.o(.text)
    TIM1_UP_TIM16_IRQHandler                 0x080001b7   Thumb Code     0  startup_stm32l476xx.o(.text)
    TIM2_IRQHandler                          0x080001b7   Thumb Code     0  startup_stm32l476xx.o(.text)
    TIM3_IRQHandler                          0x080001b7   Thumb Code     0  startup_stm32l476xx.o(.text)
    TIM4_IRQHandler                          0x080001b7   Thumb Code     0  startup_stm32l476xx.o(.text)
    TIM5_IRQHandler                          0x080001b7   Thumb Code     0  startup_stm32l476xx.o(.text)
    TIM6_DAC_IRQHandler                      0x080001b7   Thumb Code     0  startup_stm32l476xx.o(.text)
    TIM7_IRQHandler                          0x080001b7   Thumb Code     0  startup_stm32l476xx.o(.text)
    TIM8_BRK_IRQHandler                      0x080001b7   Thumb Code     0  startup_stm32l476xx.o(.text)
    TIM8_CC_IRQHandler                       0x080001b7   Thumb Code     0  startup_stm32l476xx.o(.text)
    TIM8_TRG_COM_IRQHandler                  0x080001b7   Thumb Code     0  startup_stm32l476xx.o(.text)
    TIM8_UP_IRQHandler                       0x080001b7   Thumb Code     0  startup_stm32l476xx.o(.text)
    TSC_IRQHandler                           0x080001b7   Thumb Code     0  startup_stm32l476xx.o(.text)
    UART4_IRQHandler                         0x080001b7   Thumb Code     0  startup_stm32l476xx.o(.text)
    UART5_IRQHandler                         0x080001b7   Thumb Code     0  startup_stm32l476xx.o(.text)
    USART1_IRQHandler                        0x080001b7   Thumb Code     0  startup_stm32l476xx.o(.text)
    USART3_IRQHandler                        0x080001b7   Thumb Code     0  startup_stm32l476xx.o(.text)
    WWDG_IRQHandler                          0x080001b7   Thumb Code     0  startup_stm32l476xx.o(.text)
    __aeabi_memcpy                           0x080001c1   Thumb Code    36  memcpya.o(.text)
    __aeabi_memcpy4                          0x080001c1   Thumb Code     0  memcpya.o(.text)
    __aeabi_memcpy8                          0x080001c1   Thumb Code     0  memcpya.o(.text)
    __aeabi_memset                           0x080001e5   Thumb Code    14  memseta.o(.text)
    __aeabi_memset4                          0x080001e5   Thumb Code     0  memseta.o(.text)
    __aeabi_memset8                          0x080001e5   Thumb Code     0  memseta.o(.text)
    __aeabi_memclr                           0x080001f3   Thumb Code     4  memseta.o(.text)
    __aeabi_memclr4                          0x080001f3   Thumb Code     0  memseta.o(.text)
    __aeabi_memclr8                          0x080001f3   Thumb Code     0  memseta.o(.text)
    _memset$wrapper                          0x080001f7   Thumb Code    18  memseta.o(.text)
    __scatterload                            0x08000209   Thumb Code    28  init.o(.text)
    __scatterload_rt2                        0x08000209   Thumb Code     0  init.o(.text)
    __decompress                             0x0800022d   Thumb Code     0  __dczerorl2.o(.text)
    __decompress1                            0x0800022d   Thumb Code    86  __dczerorl2.o(.text)
    ADC1_2_IRQHandler                        0x08000283   Thumb Code     2  stm32l4xx_it.o(i.ADC1_2_IRQHandler)
    BusFault_Handler                         0x08000285   Thumb Code    24  stm32l4xx_it.o(i.BusFault_Handler)
    DMA1_Channel6_IRQHandler                 0x0800029d   Thumb Code     2  stm32l4xx_it.o(i.DMA1_Channel6_IRQHandler)
    DMA1_Channel7_IRQHandler                 0x0800029f   Thumb Code     2  stm32l4xx_it.o(i.DMA1_Channel7_IRQHandler)
    DMA2_Channel4_IRQHandler                 0x080002a1   Thumb Code     2  stm32l4xx_it.o(i.DMA2_Channel4_IRQHandler)
    DWT_Init                                 0x080002a5   Thumb Code    56  board.o(i.DWT_Init)
    DebugMon_Handler                         0x080002e5   Thumb Code     2  stm32l4xx_it.o(i.DebugMon_Handler)
    Error_Handler                            0x080002e7   Thumb Code     2  main.o(i.Error_Handler)
    HAL_GetTick                              0x080002e9   Thumb Code     6  stm32l4xx_hal.o(i.HAL_GetTick)
    HAL_IncTick                              0x080002f5   Thumb Code    12  stm32l4xx_hal.o(i.HAL_IncTick)
    HAL_Init                                 0x08000305   Thumb Code    40  stm32l4xx_hal.o(i.HAL_Init)
    HAL_InitTick                             0x08000331   Thumb Code    58  stm32l4xx_hal.o(i.HAL_InitTick)
    HAL_MspInit                              0x08000375   Thumb Code    38  stm32l4xx_hal_msp.o(i.HAL_MspInit)
    HAL_NVIC_SetPriority                     0x080003a1   Thumb Code    60  stm32l4xx_hal_cortex.o(i.HAL_NVIC_SetPriority)
    HAL_NVIC_SetPriorityGrouping             0x080003e1   Thumb Code    26  stm32l4xx_hal_cortex.o(i.HAL_NVIC_SetPriorityGrouping)
    HAL_RNG_GenerateRandomNumber             0x08000405   Thumb Code   106  stm32l4xx_hal_rng.o(i.HAL_RNG_GenerateRandomNumber)
    HAL_RNG_GetRandomNumber                  0x0800046f   Thumb Code    22  stm32l4xx_hal_rng.o(i.HAL_RNG_GetRandomNumber)
    HAL_RNG_Init                             0x08000485   Thumb Code    50  stm32l4xx_hal_rng.o(i.HAL_RNG_Init)
    HAL_RNG_MspInit                          0x080004b9   Thumb Code    30  rng.o(i.HAL_RNG_MspInit)
    HAL_SYSTICK_Config                       0x080004e1   Thumb Code    40  stm32l4xx_hal_cortex.o(i.HAL_SYSTICK_Config)
    HardFault_Handler                        0x08000509   Thumb Code    24  stm32l4xx_it.o(i.HardFault_Handler)
    LL_ADC_CommonInit                        0x08000521   Thumb Code    80  stm32l4xx_ll_adc.o(i.LL_ADC_CommonInit)
    LL_ADC_Init                              0x08000581   Thumb Code    42  stm32l4xx_ll_adc.o(i.LL_ADC_Init)
    LL_ADC_REG_Init                          0x080005ad   Thumb Code    78  stm32l4xx_ll_adc.o(i.LL_ADC_REG_Init)
    LL_GPIO_Init                             0x08000759   Thumb Code   306  stm32l4xx_ll_gpio.o(i.LL_GPIO_Init)
    LL_RCC_GetUARTClockFreq                  0x0800088d   Thumb Code   144  stm32l4xx_ll_rcc.o(i.LL_RCC_GetUARTClockFreq)
    LL_RCC_GetUSARTClockFreq                 0x08000929   Thumb Code   194  stm32l4xx_ll_rcc.o(i.LL_RCC_GetUSARTClockFreq)
    LL_RTC_EnterInitMode                     0x08000a65   Thumb Code    70  stm32l4xx_ll_rtc.o(i.LL_RTC_EnterInitMode)
    LL_RTC_Init                              0x08000aab   Thumb Code    80  stm32l4xx_ll_rtc.o(i.LL_RTC_Init)
    LL_SPI_Init                              0x08000afb   Thumb Code    94  stm32l4xx_ll_spi.o(i.LL_SPI_Init)
    LL_SetSystemCoreClock                    0x08000b59   Thumb Code     6  stm32l4xx_ll_utils.o(i.LL_SetSystemCoreClock)
    LL_USART_Init                            0x08000b65   Thumb Code   182  stm32l4xx_ll_usart.o(i.LL_USART_Init)
    MX_ADC2_Init                             0x08000c35   Thumb Code   412  adc.o(i.MX_ADC2_Init)
    MX_DMA_Init                              0x08000df9   Thumb Code   104  dma.o(i.MX_DMA_Init)
    MX_GPIO_Init                             0x08000e65   Thumb Code   116  gpio.o(i.MX_GPIO_Init)
    MX_RNG_Init                              0x08000ee1   Thumb Code    28  rng.o(i.MX_RNG_Init)
    MX_RTC_Init                              0x08000f05   Thumb Code    36  rtc.o(i.MX_RTC_Init)
    MX_SPI2_Init                             0x08000f31   Thumb Code   194  spi.o(i.MX_SPI2_Init)
    MX_USART2_UART_Init                      0x08001009   Thumb Code   344  usart.o(i.MX_USART2_UART_Init)
    MemManage_Handler                        0x08001179   Thumb Code    24  stm32l4xx_it.o(i.MemManage_Handler)
    NMI_Handler                              0x08001191   Thumb Code     2  stm32l4xx_it.o(i.NMI_Handler)
    PendSV_Handler                           0x080011c5   Thumb Code     2  stm32l4xx_it.o(i.PendSV_Handler)
    RCC_GetHCLKClockFreq                     0x080011c9   Thumb Code    18  stm32l4xx_ll_rcc.o(i.RCC_GetHCLKClockFreq)
    RCC_GetPCLK1ClockFreq                    0x080011e5   Thumb Code    20  stm32l4xx_ll_rcc.o(i.RCC_GetPCLK1ClockFreq)
    RCC_GetPCLK2ClockFreq                    0x08001201   Thumb Code    20  stm32l4xx_ll_rcc.o(i.RCC_GetPCLK2ClockFreq)
    RCC_GetSystemClockFreq                   0x0800121d   Thumb Code    98  stm32l4xx_ll_rcc.o(i.RCC_GetSystemClockFreq)
    RCC_PLL_GetFreqDomain_SYS                0x08001291   Thumb Code   122  stm32l4xx_ll_rcc.o(i.RCC_PLL_GetFreqDomain_SYS)
    SPI2_IRQHandler                          0x0800131d   Thumb Code     2  stm32l4xx_it.o(i.SPI2_IRQHandler)
    SSD1331_drawFrame                        0x0800131f   Thumb Code   134  ssd1331.o(i.SSD1331_drawFrame)
    SSD1331_drawPixel                        0x080013a5   Thumb Code    80  ssd1331.o(i.SSD1331_drawPixel)
    SSD1331_init                             0x080013f9   Thumb Code   266  ssd1331.o(i.SSD1331_init)
    SVC_Handler                              0x0800150d   Thumb Code     2  stm32l4xx_it.o(i.SVC_Handler)
    SysTick_Handler                          0x0800150f   Thumb Code     4  stm32l4xx_it.o(i.SysTick_Handler)
    SystemClock_Config                       0x08001515   Thumb Code   378  main.o(i.SystemClock_Config)
    SystemInit                               0x080016ad   Thumb Code    56  system_stm32l4xx.o(i.SystemInit)
    USART2_IRQHandler                        0x080016f1   Thumb Code   274  stm32l4xx_it.o(i.USART2_IRQHandler)
    UsageFault_Handler                       0x08001841   Thumb Code     2  stm32l4xx_it.o(i.UsageFault_Handler)
    __0printf$bare                           0x08001845   Thumb Code     8  printfb.o(i.__0printf$bare)
    __1printf$bare                           0x08001845   Thumb Code     0  printfb.o(i.__0printf$bare)
    __2printf                                0x08001845   Thumb Code     0  printfb.o(i.__0printf$bare)
    __scatterload_copy                       0x080018af   Thumb Code    14  handlers.o(i.__scatterload_copy)
    __scatterload_null                       0x080018bd   Thumb Code     2  handlers.o(i.__scatterload_null)
    __scatterload_zeroinit                   0x080018bf   Thumb Code    14  handlers.o(i.__scatterload_zeroinit)
    _calc_neighbours                         0x080018cd   Thumb Code   114  conway.o(i._calc_neighbours)
    _delay_ms                                0x08001945   Thumb Code    10  board.o(i._delay_ms)
    _draw_dot                                0x08001951   Thumb Code    28  conway_draw.o(i._draw_dot)
    _get_cell_state                          0x08001971   Thumb Code    36  conway_cell_service.o(i._get_cell_state)
    _sendCmd                                 0x080019b9   Thumb Code    24  ssd1331.o(i._sendCmd)
    _sendData                                0x080019d5   Thumb Code    16  ssd1331.o(i._sendData)
    _set_cell_state                          0x080019e9   Thumb Code    50  conway_cell_service.o(i._set_cell_state)
    delay_us                                 0x08001a1d   Thumb Code    28  board.o(i.delay_us)
    fputc                                    0x08001a45   Thumb Code     4  retarget.o(i.fputc)
    main                                     0x08001a49   Thumb Code    96  main.o(i.main)
    printf_fifo_update                       0x08001abd   Thumb Code    52  retarget.o(i.printf_fifo_update)
    sendchar                                 0x08001afd   Thumb Code    14  retarget.o(i.sendchar)
    universe_add                             0x08001b15   Thumb Code    64  conway_object.o(i.universe_add)
    universe_add_nxn                         0x08001b55   Thumb Code    42  conway_object.o(i.universe_add_nxn)
    universe_clear                           0x08001b7f   Thumb Code    28  conway_service.o(i.universe_clear)
    universe_draw_window                     0x08001b9d   Thumb Code   300  conway_draw.o(i.universe_draw_window)
    universe_fill                            0x08001d3f   Thumb Code    28  conway_service.o(i.universe_fill)
    universe_next                            0x08001d5b   Thumb Code   136  conway.o(i.universe_next)
    universe_rand                            0x08001de5   Thumb Code    44  conway_service.o(i.universe_rand)
    wait_and_clear                           0x08001e15   Thumb Code    34  main.o(i.wait_and_clear)
    AHBPrescTable                            0x08001e44   Data          16  system_stm32l4xx.o(.constdata)
    MSIRangeTable                            0x08001e54   Data          48  system_stm32l4xx.o(.constdata)
    APBPrescTable                            0x08001e84   Data           8  system_stm32l4xx.o(.constdata)
    Region$$Table$$Base                      0x08001e8c   Number         0  anon$$obj.o(Region$$Table)
    Region$$Table$$Limit                     0x08001eac   Number         0  anon$$obj.o(Region$$Table)
    disp_gain                                0x20000000   Data           4  conway_draw.o(.data)
    disp_color_table                         0x20000004   Data           4  conway_draw.o(.data)
    disp_body_en                             0x20000008   Data           4  conway_draw.o(.data)
    disp_shadow_en                           0x2000000c   Data           4  conway_draw.o(.data)
    disp_offset_x                            0x20000010   Data           4  conway_draw.o(.data)
    disp_offset_y                            0x20000014   Data           4  conway_draw.o(.data)
    universe_new_rand                        0x20000018   Data           4  conway_draw.o(.data)
    universe_new_clear                       0x2000001c   Data           4  conway_draw.o(.data)
    pause                                    0x20000020   Data           4  conway_draw.o(.data)
    step                                     0x20000024   Data           4  conway_draw.o(.data)
    universe_add_object0                     0x20000028   Data           4  conway_draw.o(.data)
    universe_add_object1                     0x2000002c   Data           4  conway_draw.o(.data)
    glider_flag                              0x20000030   Data           4  conway_draw.o(.data)
    new_year                                 0x20000034   Data           4  conway_draw.o(.data)
    my_osc_flag                              0x20000038   Data           4  conway_draw.o(.data)
    object0                                  0x200000bc   Data          64  conway_object.o(.data)
    glider                                   0x200000fc   Data           9  conway_object.o(.data)
    new_eayr_2020                            0x20000105   Data         512  conway_object.o(.data)
    my_osc2                                  0x20000305   Data         361  conway_object.o(.data)
    uwTickPrio                               0x20000470   Data           4  stm32l4xx_hal.o(.data)
    uwTickFreq                               0x20000474   Data           4  stm32l4xx_hal.o(.data)
    uwTick                                   0x20000478   Data           4  stm32l4xx_hal.o(.data)
    SystemCoreClock                          0x2000047c   Data           4  system_stm32l4xx.o(.data)
    pointer                                  0x20000480   Data           4  retarget.o(.data)
    __stdout                                 0x20000484   Data           4  retarget.o(.data)
    hrng                                     0x20000488   Data          16  rng.o(.bss)
    buf                                      0x20000498   Data         100  retarget.o(.bss)
    __initial_sp                             0x200104ff   Data           0  startup_stm32l476xx.o(STACK)



==============================================================================

Memory Map of the image

  Image Entry point : 0x08000189

  Load Region LR_IROM1 (Base: 0x08000000, Size: 0x00002334, Max: 0x00100000, ABSOLUTE, COMPRESSED[0x00001f7c])

    Execution Region ER_IROM1 (Exec base: 0x08000000, Load base: 0x08000000, Size: 0x00001eac, Max: 0x00100000, ABSOLUTE)

    Exec Addr    Load Addr    Size         Type   Attr      Idx    E Section Name        Object

    0x08000000   0x08000000   0x00000188   Data   RO            3    RESET               startup_stm32l476xx.o
    0x08000188   0x08000188   0x00000000   Code   RO         4126  * .ARM.Collect$$$$00000000  mc_w.l(entry.o)
    0x08000188   0x08000188   0x00000004   Code   RO         4395    .ARM.Collect$$$$00000001  mc_w.l(entry2.o)
    0x0800018c   0x0800018c   0x00000004   Code   RO         4398    .ARM.Collect$$$$00000004  mc_w.l(entry5.o)
    0x08000190   0x08000190   0x00000000   Code   RO         4400    .ARM.Collect$$$$00000008  mc_w.l(entry7b.o)
    0x08000190   0x08000190   0x00000000   Code   RO         4402    .ARM.Collect$$$$0000000A  mc_w.l(entry8b.o)
    0x08000190   0x08000190   0x00000008   Code   RO         4403    .ARM.Collect$$$$0000000B  mc_w.l(entry9a.o)
    0x08000198   0x08000198   0x00000000   Code   RO         4405    .ARM.Collect$$$$0000000D  mc_w.l(entry10a.o)
    0x08000198   0x08000198   0x00000000   Code   RO         4407    .ARM.Collect$$$$0000000F  mc_w.l(entry11a.o)
    0x08000198   0x08000198   0x00000004   Code   RO         4396    .ARM.Collect$$$$00002712  mc_w.l(entry2.o)
    0x0800019c   0x0800019c   0x00000024   Code   RO            4    .text               startup_stm32l476xx.o
    0x080001c0   0x080001c0   0x00000024   Code   RO         4129    .text               mc_w.l(memcpya.o)
    0x080001e4   0x080001e4   0x00000024   Code   RO         4131    .text               mc_w.l(memseta.o)
    0x08000208   0x08000208   0x00000024   Code   RO         4424    .text               mc_w.l(init.o)
    0x0800022c   0x0800022c   0x00000056   Code   RO         4442    .text               mc_w.l(__dczerorl2.o)
    0x08000282   0x08000282   0x00000002   Code   RO         1015    i.ADC1_2_IRQHandler  stm32l4xx_it.o
    0x08000284   0x08000284   0x00000018   Code   RO         1016    i.BusFault_Handler  stm32l4xx_it.o
    0x0800029c   0x0800029c   0x00000002   Code   RO         1017    i.DMA1_Channel6_IRQHandler  stm32l4xx_it.o
    0x0800029e   0x0800029e   0x00000002   Code   RO         1018    i.DMA1_Channel7_IRQHandler  stm32l4xx_it.o
    0x080002a0   0x080002a0   0x00000002   Code   RO         1019    i.DMA2_Channel4_IRQHandler  stm32l4xx_it.o
    0x080002a2   0x080002a2   0x00000002   PAD
    0x080002a4   0x080002a4   0x00000040   Code   RO           13    i.DWT_Init          board.o
    0x080002e4   0x080002e4   0x00000002   Code   RO         1020    i.DebugMon_Handler  stm32l4xx_it.o
    0x080002e6   0x080002e6   0x00000002   Code   RO          579    i.Error_Handler     main.o
    0x080002e8   0x080002e8   0x0000000c   Code   RO         1473    i.HAL_GetTick       stm32l4xx_hal.o
    0x080002f4   0x080002f4   0x00000010   Code   RO         1479    i.HAL_IncTick       stm32l4xx_hal.o
    0x08000304   0x08000304   0x0000002c   Code   RO         1480    i.HAL_Init          stm32l4xx_hal.o
    0x08000330   0x08000330   0x00000044   Code   RO         1481    i.HAL_InitTick      stm32l4xx_hal.o
    0x08000374   0x08000374   0x0000002c   Code   RO         1129    i.HAL_MspInit       stm32l4xx_hal_msp.o
    0x080003a0   0x080003a0   0x00000040   Code   RO         3217    i.HAL_NVIC_SetPriority  stm32l4xx_hal_cortex.o
    0x080003e0   0x080003e0   0x00000024   Code   RO         3218    i.HAL_NVIC_SetPriorityGrouping  stm32l4xx_hal_cortex.o
    0x08000404   0x08000404   0x0000006a   Code   RO         3415    i.HAL_RNG_GenerateRandomNumber  stm32l4xx_hal_rng.o
    0x0800046e   0x0800046e   0x00000016   Code   RO         3418    i.HAL_RNG_GetRandomNumber  stm32l4xx_hal_rng.o
    0x08000484   0x08000484   0x00000032   Code   RO         3422    i.HAL_RNG_Init      stm32l4xx_hal_rng.o
    0x080004b6   0x080004b6   0x00000002   PAD
    0x080004b8   0x080004b8   0x00000028   Code   RO          818    i.HAL_RNG_MspInit   rng.o
    0x080004e0   0x080004e0   0x00000028   Code   RO         3222    i.HAL_SYSTICK_Config  stm32l4xx_hal_cortex.o
    0x08000508   0x08000508   0x00000018   Code   RO         1021    i.HardFault_Handler  stm32l4xx_it.o
    0x08000520   0x08000520   0x00000060   Code   RO         1333    i.LL_ADC_CommonInit  stm32l4xx_ll_adc.o
    0x08000580   0x08000580   0x0000002a   Code   RO         1338    i.LL_ADC_Init       stm32l4xx_ll_adc.o
    0x080005aa   0x080005aa   0x00000002   PAD
    0x080005ac   0x080005ac   0x00000054   Code   RO         1339    i.LL_ADC_REG_Init   stm32l4xx_ll_adc.o
    0x08000600   0x08000600   0x00000022   Code   RO          700    i.LL_ADC_REG_SetSequencerRanks  adc.o
    0x08000622   0x08000622   0x0000001e   Code   RO          701    i.LL_ADC_SetChannelSamplingTime  adc.o
    0x08000640   0x08000640   0x00000020   Code   RO          702    i.LL_ADC_SetChannelSingleDiff  adc.o
    0x08000660   0x08000660   0x00000018   Code   RO          766    i.LL_AHB1_GRP1_EnableClock  dma.o
    0x08000678   0x08000678   0x00000018   Code   RO          665    i.LL_AHB2_GRP1_EnableClock  gpio.o
    0x08000690   0x08000690   0x00000018   Code   RO          703    i.LL_AHB2_GRP1_EnableClock  adc.o
    0x080006a8   0x080006a8   0x00000014   Code   RO          943    i.LL_DMA_SetChannelPriorityLevel  usart.o
    0x080006bc   0x080006bc   0x00000018   Code   RO          944    i.LL_DMA_SetDataTransferDirection  usart.o
    0x080006d4   0x080006d4   0x00000014   Code   RO          945    i.LL_DMA_SetMemoryIncMode  usart.o
    0x080006e8   0x080006e8   0x00000014   Code   RO          946    i.LL_DMA_SetMemorySize  usart.o
    0x080006fc   0x080006fc   0x00000014   Code   RO          947    i.LL_DMA_SetMode    usart.o
    0x08000710   0x08000710   0x00000014   Code   RO          948    i.LL_DMA_SetPeriphIncMode  usart.o
    0x08000724   0x08000724   0x0000001e   Code   RO          949    i.LL_DMA_SetPeriphRequest  usart.o
    0x08000742   0x08000742   0x00000002   PAD
    0x08000744   0x08000744   0x00000014   Code   RO          950    i.LL_DMA_SetPeriphSize  usart.o
    0x08000758   0x08000758   0x00000132   Code   RO         1283    i.LL_GPIO_Init      stm32l4xx_ll_gpio.o
    0x0800088a   0x0800088a   0x00000002   PAD
    0x0800088c   0x0800088c   0x0000009c   Code   RO         3794    i.LL_RCC_GetUARTClockFreq  stm32l4xx_ll_rcc.o
    0x08000928   0x08000928   0x000000cc   Code   RO         3795    i.LL_RCC_GetUSARTClockFreq  stm32l4xx_ll_rcc.o
    0x080009f4   0x080009f4   0x00000010   Code   RO         3797    i.LL_RCC_HSI_IsReady  stm32l4xx_ll_rcc.o
    0x08000a04   0x08000a04   0x00000010   Code   RO         3798    i.LL_RCC_LSE_IsReady  stm32l4xx_ll_rcc.o
    0x08000a14   0x08000a14   0x00000010   Code   RO         3799    i.LL_RCC_MSI_GetRange  stm32l4xx_ll_rcc.o
    0x08000a24   0x08000a24   0x00000010   Code   RO         3800    i.LL_RCC_MSI_GetRangeAfterStandby  stm32l4xx_ll_rcc.o
    0x08000a34   0x08000a34   0x00000010   Code   RO         3801    i.LL_RCC_MSI_IsEnabledRangeSelect  stm32l4xx_ll_rcc.o
    0x08000a44   0x08000a44   0x00000010   Code   RO         3804    i.LL_RCC_PLL_GetDivider  stm32l4xx_ll_rcc.o
    0x08000a54   0x08000a54   0x00000010   Code   RO         3805    i.LL_RCC_PLL_GetMainSource  stm32l4xx_ll_rcc.o
    0x08000a64   0x08000a64   0x00000046   Code   RO         3525    i.LL_RTC_EnterInitMode  stm32l4xx_ll_rtc.o
    0x08000aaa   0x08000aaa   0x00000050   Code   RO         3527    i.LL_RTC_Init       stm32l4xx_ll_rtc.o
    0x08000afa   0x08000afa   0x0000005e   Code   RO         3644    i.LL_SPI_Init       stm32l4xx_ll_spi.o
    0x08000b58   0x08000b58   0x0000000c   Code   RO         1158    i.LL_SetSystemCoreClock  stm32l4xx_ll_utils.o
    0x08000b64   0x08000b64   0x000000d0   Code   RO         3726    i.LL_USART_Init     stm32l4xx_ll_usart.o
    0x08000c34   0x08000c34   0x000001c4   Code   RO          704    i.MX_ADC2_Init      adc.o
    0x08000df8   0x08000df8   0x0000006c   Code   RO          767    i.MX_DMA_Init       dma.o
    0x08000e64   0x08000e64   0x0000007c   Code   RO          666    i.MX_GPIO_Init      gpio.o
    0x08000ee0   0x08000ee0   0x00000024   Code   RO          819    i.MX_RNG_Init       rng.o
    0x08000f04   0x08000f04   0x0000002c   Code   RO          859    i.MX_RTC_Init       rtc.o
    0x08000f30   0x08000f30   0x000000d8   Code   RO          886    i.MX_SPI2_Init      spi.o
    0x08001008   0x08001008   0x00000170   Code   RO          951    i.MX_USART2_UART_Init  usart.o
    0x08001178   0x08001178   0x00000018   Code   RO         1022    i.MemManage_Handler  stm32l4xx_it.o
    0x08001190   0x08001190   0x00000002   Code   RO         1023    i.NMI_Handler       stm32l4xx_it.o
    0x08001192   0x08001192   0x00000032   Code   RO          768    i.NVIC_EncodePriority  dma.o
    0x080011c4   0x080011c4   0x00000002   Code   RO         1024    i.PendSV_Handler    stm32l4xx_it.o
    0x080011c6   0x080011c6   0x00000002   PAD
    0x080011c8   0x080011c8   0x0000001c   Code   RO         3807    i.RCC_GetHCLKClockFreq  stm32l4xx_ll_rcc.o
    0x080011e4   0x080011e4   0x0000001c   Code   RO         3808    i.RCC_GetPCLK1ClockFreq  stm32l4xx_ll_rcc.o
    0x08001200   0x08001200   0x0000001c   Code   RO         3809    i.RCC_GetPCLK2ClockFreq  stm32l4xx_ll_rcc.o
    0x0800121c   0x0800121c   0x00000074   Code   RO         3810    i.RCC_GetSystemClockFreq  stm32l4xx_ll_rcc.o
    0x08001290   0x08001290   0x0000008c   Code   RO         3818    i.RCC_PLL_GetFreqDomain_SYS  stm32l4xx_ll_rcc.o
    0x0800131c   0x0800131c   0x00000002   Code   RO         1025    i.SPI2_IRQHandler   stm32l4xx_it.o
    0x0800131e   0x0800131e   0x00000086   Code   RO          435    i.SSD1331_drawFrame  ssd1331.o
    0x080013a4   0x080013a4   0x00000054   Code   RO          437    i.SSD1331_drawPixel  ssd1331.o
    0x080013f8   0x080013f8   0x00000114   Code   RO          439    i.SSD1331_init      ssd1331.o
    0x0800150c   0x0800150c   0x00000002   Code   RO         1026    i.SVC_Handler       stm32l4xx_it.o
    0x0800150e   0x0800150e   0x00000004   Code   RO         1027    i.SysTick_Handler   stm32l4xx_it.o
    0x08001512   0x08001512   0x00000002   PAD
    0x08001514   0x08001514   0x00000198   Code   RO          580    i.SystemClock_Config  main.o
    0x080016ac   0x080016ac   0x00000044   Code   RO         4013    i.SystemInit        system_stm32l4xx.o
    0x080016f0   0x080016f0   0x00000150   Code   RO         1028    i.USART2_IRQHandler  stm32l4xx_it.o
    0x08001840   0x08001840   0x00000002   Code   RO         1029    i.UsageFault_Handler  stm32l4xx_it.o
    0x08001842   0x08001842   0x00000002   PAD
    0x08001844   0x08001844   0x00000010   Code   RO         4136    i.__0printf$bare    mc_w.l(printfb.o)
    0x08001854   0x08001854   0x0000001a   Code   RO          769    i.__NVIC_EnableIRQ  dma.o
    0x0800186e   0x0800186e   0x00000020   Code   RO          770    i.__NVIC_SetPriority  dma.o
    0x0800188e   0x0800188e   0x00000020   Code   RO         3224    i.__NVIC_SetPriority  stm32l4xx_hal_cortex.o
    0x080018ae   0x080018ae   0x0000000e   Code   RO         4436    i.__scatterload_copy  mc_w.l(handlers.o)
    0x080018bc   0x080018bc   0x00000002   Code   RO         4437    i.__scatterload_null  mc_w.l(handlers.o)
    0x080018be   0x080018be   0x0000000e   Code   RO         4438    i.__scatterload_zeroinit  mc_w.l(handlers.o)
    0x080018cc   0x080018cc   0x00000078   Code   RO          200    i._calc_neighbours  conway.o
    0x08001944   0x08001944   0x0000000a   Code   RO           14    i._delay_ms         board.o
    0x0800194e   0x0800194e   0x00000002   PAD
    0x08001950   0x08001950   0x00000020   Code   RO          280    i._draw_dot         conway_draw.o
    0x08001970   0x08001970   0x00000024   Code   RO          250    i._get_cell_state   conway_cell_service.o
    0x08001994   0x08001994   0x00000022   Code   RO         4143    i._printf_core      mc_w.l(printfb.o)
    0x080019b6   0x080019b6   0x00000002   PAD
    0x080019b8   0x080019b8   0x0000001c   Code   RO          443    i._sendCmd          ssd1331.o
    0x080019d4   0x080019d4   0x00000014   Code   RO          444    i._sendData         ssd1331.o
    0x080019e8   0x080019e8   0x00000032   Code   RO          251    i._set_cell_state   conway_cell_service.o
    0x08001a1a   0x08001a1a   0x00000002   PAD
    0x08001a1c   0x08001a1c   0x00000028   Code   RO           15    i.delay_us          board.o
    0x08001a44   0x08001a44   0x00000004   Code   RO         4054    i.fputc             retarget.o
    0x08001a48   0x08001a48   0x00000074   Code   RO          581    i.main              main.o
    0x08001abc   0x08001abc   0x00000040   Code   RO         4055    i.printf_fifo_update  retarget.o
    0x08001afc   0x08001afc   0x00000018   Code   RO         4056    i.sendchar          retarget.o
    0x08001b14   0x08001b14   0x00000040   Code   RO          347    i.universe_add      conway_object.o
    0x08001b54   0x08001b54   0x0000002a   Code   RO          348    i.universe_add_nxn  conway_object.o
    0x08001b7e   0x08001b7e   0x0000001c   Code   RO          389    i.universe_clear    conway_service.o
    0x08001b9a   0x08001b9a   0x00000002   PAD
    0x08001b9c   0x08001b9c   0x000001a2   Code   RO          281    i.universe_draw_window  conway_draw.o
    0x08001d3e   0x08001d3e   0x0000001c   Code   RO          390    i.universe_fill     conway_service.o
    0x08001d5a   0x08001d5a   0x00000088   Code   RO          201    i.universe_next     conway.o
    0x08001de2   0x08001de2   0x00000002   PAD
    0x08001de4   0x08001de4   0x00000030   Code   RO          391    i.universe_rand     conway_service.o
    0x08001e14   0x08001e14   0x00000022   Code   RO          582    i.wait_and_clear    main.o
    0x08001e36   0x08001e36   0x00000007   Data   RO          707    .constdata          adc.o
    0x08001e3d   0x08001e3d   0x00000007   Data   RO          952    .constdata          usart.o
    0x08001e44   0x08001e44   0x00000040   Data   RO         4014    .constdata          system_stm32l4xx.o
    0x08001e84   0x08001e84   0x00000008   Data   RO         4015    .constdata          system_stm32l4xx.o
    0x08001e8c   0x08001e8c   0x00000020   Data   RO         4434    Region$$Table       anon$$obj.o


    Execution Region RW_IRAM1 (Exec base: 0x20000000, Load base: 0x08001eac, Size: 0x00010500, Max: 0x00018000, ABSOLUTE, COMPRESSED[0x000000d0])

    Exec Addr    Load Addr    Size         Type   Attr      Idx    E Section Name        Object

    0x20000000   COMPRESSED   0x000000bc   Data   RW          282    .data               conway_draw.o
    0x200000bc   COMPRESSED   0x00000040   Data   RW          349    .data               conway_object.o
    0x200000fc   COMPRESSED   0x00000009   Data   RW          350    .data               conway_object.o
    0x20000105   COMPRESSED   0x00000200   Data   RW          351    .data               conway_object.o
    0x20000305   COMPRESSED   0x00000169   Data   RW          353    .data               conway_object.o
    0x2000046e   COMPRESSED   0x00000002   PAD
    0x20000470   COMPRESSED   0x0000000c   Data   RW         1497    .data               stm32l4xx_hal.o
    0x2000047c   COMPRESSED   0x00000004   Data   RW         4016    .data               system_stm32l4xx.o
    0x20000480   COMPRESSED   0x00000004   Data   RW         4058    .data               retarget.o
    0x20000484   COMPRESSED   0x00000004   Data   RW         4059    .data               retarget.o
    0x20000488        -       0x00000010   Zero   RW          820    .bss                rng.o
    0x20000498        -       0x00000064   Zero   RW         4057    .bss                retarget.o
    0x200004fc   COMPRESSED   0x00000004   PAD
    0x20000500        -       0x0000ffff   Zero   RW            1    STACK               startup_stm32l476xx.o


==============================================================================

Image component sizes


      Code (inc. data)   RO Data    RW Data    ZI Data      Debug   Object Name

       572         50          7          0          0     110766   adc.o
       114         20          0          0          0     696006   board.o
       256          0          0          0          0       5492   conway.o
        86          0          0          0          0       1400   conway_cell_service.o
       450        116          0        188          0       3934   conway_draw.o
       106          0          0        946          0       3957   conway_object.o
       104          4          0          0          0       2101   conway_service.o
       240         10          0          0          0      38985   dma.o
       148         14          0          0          0      11619   gpio.o
       560         50          0          0          0      65299   main.o
        92         22          0          8        100      21710   retarget.o
        76         18          0          0         16       1647   rng.o
        44          8          0          0          0      25902   rtc.o
       216         22          0          0          0      14799   spi.o
       542         22          0          0          0      11310   ssd1331.o
        36          8        392          0      65535        876   startup_stm32l476xx.o
       140         24          0         12          0       3905   stm32l4xx_hal.o
       172         14          0          0          0      33458   stm32l4xx_hal_cortex.o
        44          6          0          0          0        906   stm32l4xx_hal_msp.o
       178          0          0          0          0       2844   stm32l4xx_hal_rng.o
       432         86          0          0          0      25961   stm32l4xx_it.o
       222         22          0          0          0      69956   stm32l4xx_ll_adc.o
       306          0          0          0          0       7647   stm32l4xx_ll_gpio.o
       812        122          0          0          0      36797   stm32l4xx_ll_rcc.o
       150          0          0          0          0      29565   stm32l4xx_ll_rtc.o
        94          0          0          0          0      11338   stm32l4xx_ll_spi.o
       208         26          0          0          0      21256   stm32l4xx_ll_usart.o
        12          6          0          0          0       5916   stm32l4xx_ll_utils.o
        68         12         72          4          0       1329   system_stm32l4xx.o
       542         52          7          0          0      37678   usart.o

    ----------------------------------------------------------------------
      7046        734        510       1160      65656    1304359   Object Totals
         0          0         32          0          0          0   (incl. Generated)
        24          0          0          2          5          0   (incl. Padding)

    ----------------------------------------------------------------------

      Code (inc. data)   RO Data    RW Data    ZI Data      Debug   Library Member Name

        86          0          0          0          0          0   __dczerorl2.o
         0          0          0          0          0          0   entry.o
         0          0          0          0          0          0   entry10a.o
         0          0          0          0          0          0   entry11a.o
         8          4          0          0          0          0   entry2.o
         4          0          0          0          0          0   entry5.o
         0          0          0          0          0          0   entry7b.o
         0          0          0          0          0          0   entry8b.o
         8          4          0          0          0          0   entry9a.o
        30          0          0          0          0          0   handlers.o
        36          8          0          0          0         68   init.o
        36          0          0          0          0         68   memcpya.o
        36          0          0          0          0        108   memseta.o
        50          8          0          0          0        152   printfb.o

    ----------------------------------------------------------------------
       296         24          0          0          0        396   Library Totals
         2          0          0          0          0          0   (incl. Padding)

    ----------------------------------------------------------------------

      Code (inc. data)   RO Data    RW Data    ZI Data      Debug   Library Name

       294         24          0          0          0        396   mc_w.l

    ----------------------------------------------------------------------
       296         24          0          0          0        396   Library Totals

    ----------------------------------------------------------------------

==============================================================================


      Code (inc. data)   RO Data    RW Data    ZI Data      Debug   

      7342        758        510       1160      65656    1295435   Grand Totals
      7342        758        510        208      65656    1295435   ELF Image Totals (compressed)
      7342        758        510        208          0          0   ROM Totals

==============================================================================

    Total RO  Size (Code + RO Data)                 7852 (   7.67kB)
    Total RW  Size (RW Data + ZI Data)             66816 (  65.25kB)
    Total ROM Size (Code + RO Data + RW Data)       8060 (   7.87kB)

==============================================================================

